{
	"contracts/lottery.sol": {
		"Lottery": {
			"abi": [
				{
					"inputs": [],
					"stateMutability": "nonpayable",
					"type": "constructor"
				},
				{
					"inputs": [],
					"name": "enter",
					"outputs": [],
					"stateMutability": "payable",
					"type": "function"
				},
				{
					"inputs": [],
					"name": "owner",
					"outputs": [
						{
							"internalType": "address",
							"name": "",
							"type": "address"
						}
					],
					"stateMutability": "view",
					"type": "function"
				},
				{
					"inputs": [],
					"name": "pickWinner",
					"outputs": [],
					"stateMutability": "nonpayable",
					"type": "function"
				},
				{
					"inputs": [
						{
							"internalType": "uint256",
							"name": "",
							"type": "uint256"
						}
					],
					"name": "players",
					"outputs": [
						{
							"internalType": "address payable",
							"name": "",
							"type": "address"
						}
					],
					"stateMutability": "view",
					"type": "function"
				},
				{
					"inputs": [],
					"name": "random",
					"outputs": [
						{
							"internalType": "uint8",
							"name": "",
							"type": "uint8"
						}
					],
					"stateMutability": "view",
					"type": "function"
				},
				{
					"inputs": [],
					"name": "winner",
					"outputs": [
						{
							"internalType": "address",
							"name": "",
							"type": "address"
						}
					],
					"stateMutability": "view",
					"type": "function"
				}
			],
			"devdoc": {
				"kind": "dev",
				"methods": {},
				"version": 1
			},
			"evm": {
				"assembly": "    /* \"contracts/lottery.sol\":60:1070  contract Lottery {... */\n  mstore(0x40, 0x80)\n    /* \"contracts/lottery.sol\":179:230  constructor() {... */\n  callvalue\n  dup1\n  iszero\n  tag_1\n  jumpi\n  0x00\n  dup1\n  revert\ntag_1:\n  pop\n    /* \"contracts/lottery.sol\":212:222  msg.sender */\n  caller\n    /* \"contracts/lottery.sol\":204:209  owner */\n  0x00\n  dup1\n    /* \"contracts/lottery.sol\":204:222  owner = msg.sender */\n  0x0100\n  exp\n  dup2\n  sload\n  dup2\n  0xffffffffffffffffffffffffffffffffffffffff\n  mul\n  not\n  and\n  swap1\n  dup4\n  0xffffffffffffffffffffffffffffffffffffffff\n  and\n  mul\n  or\n  swap1\n  sstore\n  pop\n    /* \"contracts/lottery.sol\":60:1070  contract Lottery {... */\n  dataSize(sub_0)\n  dup1\n  dataOffset(sub_0)\n  0x00\n  codecopy\n  0x00\n  return\nstop\n\nsub_0: assembly {\n        /* \"contracts/lottery.sol\":60:1070  contract Lottery {... */\n      mstore(0x40, 0x80)\n      jumpi(tag_1, lt(calldatasize, 0x04))\n      shr(0xe0, calldataload(0x00))\n      dup1\n      0x5d495aea\n      eq\n      tag_2\n      jumpi\n      dup1\n      0x5ec01e4d\n      eq\n      tag_3\n      jumpi\n      dup1\n      0x8da5cb5b\n      eq\n      tag_4\n      jumpi\n      dup1\n      0xdfbf53ae\n      eq\n      tag_5\n      jumpi\n      dup1\n      0xe97dcb62\n      eq\n      tag_6\n      jumpi\n      dup1\n      0xf71d96cb\n      eq\n      tag_7\n      jumpi\n    tag_1:\n      0x00\n      dup1\n      revert\n        /* \"contracts/lottery.sol\":762:1067  function pickWinner() public onlyOwner {... */\n    tag_2:\n      callvalue\n      dup1\n      iszero\n      tag_8\n      jumpi\n      0x00\n      dup1\n      revert\n    tag_8:\n      pop\n      tag_9\n      tag_10\n      jump\t// in\n    tag_9:\n      stop\n        /* \"contracts/lottery.sol\":548:711  function random() public view returns (uint8) {... */\n    tag_3:\n      callvalue\n      dup1\n      iszero\n      tag_11\n      jumpi\n      0x00\n      dup1\n      revert\n    tag_11:\n      pop\n      tag_12\n      tag_13\n      jump\t// in\n    tag_12:\n      mload(0x40)\n      tag_14\n      swap2\n      swap1\n      tag_15\n      jump\t// in\n    tag_14:\n      mload(0x40)\n      dup1\n      swap2\n      sub\n      swap1\n      return\n        /* \"contracts/lottery.sol\":84:104  address public owner */\n    tag_4:\n      callvalue\n      dup1\n      iszero\n      tag_16\n      jumpi\n      0x00\n      dup1\n      revert\n    tag_16:\n      pop\n      tag_17\n      tag_18\n      jump\t// in\n    tag_17:\n      mload(0x40)\n      tag_19\n      swap2\n      swap1\n      tag_20\n      jump\t// in\n    tag_19:\n      mload(0x40)\n      dup1\n      swap2\n      sub\n      swap1\n      return\n        /* \"contracts/lottery.sol\":111:132  address public winner */\n    tag_5:\n      callvalue\n      dup1\n      iszero\n      tag_21\n      jumpi\n      0x00\n      dup1\n      revert\n    tag_21:\n      pop\n      tag_22\n      tag_23\n      jump\t// in\n    tag_22:\n      mload(0x40)\n      tag_24\n      swap2\n      swap1\n      tag_20\n      jump\t// in\n    tag_24:\n      mload(0x40)\n      dup1\n      swap2\n      sub\n      swap1\n      return\n        /* \"contracts/lottery.sol\":362:508  function enter() public payable {... */\n    tag_6:\n      tag_25\n      tag_26\n      jump\t// in\n    tag_25:\n      stop\n        /* \"contracts/lottery.sol\":139:172  address payable [] public players */\n    tag_7:\n      callvalue\n      dup1\n      iszero\n      tag_27\n      jumpi\n      0x00\n      dup1\n      revert\n    tag_27:\n      pop\n      tag_28\n      0x04\n      dup1\n      calldatasize\n      sub\n      dup2\n      add\n      swap1\n      tag_29\n      swap2\n      swap1\n      tag_30\n      jump\t// in\n    tag_29:\n      tag_31\n      jump\t// in\n    tag_28:\n      mload(0x40)\n      tag_32\n      swap2\n      swap1\n      tag_33\n      jump\t// in\n    tag_32:\n      mload(0x40)\n      dup1\n      swap2\n      sub\n      swap1\n      return\n        /* \"contracts/lottery.sol\":762:1067  function pickWinner() public onlyOwner {... */\n    tag_10:\n        /* \"contracts/lottery.sol\":293:298  owner */\n      0x00\n      dup1\n      sload\n      swap1\n      0x0100\n      exp\n      swap1\n      div\n      0xffffffffffffffffffffffffffffffffffffffff\n      and\n        /* \"contracts/lottery.sol\":279:298  msg.sender == owner */\n      0xffffffffffffffffffffffffffffffffffffffff\n      and\n        /* \"contracts/lottery.sol\":279:289  msg.sender */\n      caller\n        /* \"contracts/lottery.sol\":279:298  msg.sender == owner */\n      0xffffffffffffffffffffffffffffffffffffffff\n      and\n      eq\n        /* \"contracts/lottery.sol\":271:299  require(msg.sender == owner) */\n      tag_35\n      jumpi\n      0x00\n      dup1\n      revert\n    tag_35:\n        /* \"contracts/lottery.sol\":812:825  uint256 index */\n      0x00\n        /* \"contracts/lottery.sol\":839:846  players */\n      0x02\n        /* \"contracts/lottery.sol\":839:853  players.length */\n      dup1\n      sload\n      swap1\n      pop\n        /* \"contracts/lottery.sol\":828:836  random() */\n      tag_37\n        /* \"contracts/lottery.sol\":828:834  random */\n      tag_13\n        /* \"contracts/lottery.sol\":828:836  random() */\n      jump\t// in\n    tag_37:\n        /* \"contracts/lottery.sol\":828:853  random() % players.length */\n      0xff\n      and\n      tag_38\n      swap2\n      swap1\n      tag_39\n      jump\t// in\n    tag_38:\n        /* \"contracts/lottery.sol\":812:853  uint256 index = random() % players.length */\n      swap1\n      pop\n        /* \"contracts/lottery.sol\":904:911  players */\n      0x02\n        /* \"contracts/lottery.sol\":912:917  index */\n      dup2\n        /* \"contracts/lottery.sol\":904:918  players[index] */\n      dup2\n      sload\n      dup2\n      lt\n      tag_40\n      jumpi\n      tag_41\n      tag_42\n      jump\t// in\n    tag_41:\n    tag_40:\n      swap1\n      0x00\n      mstore\n      keccak256(0x00, 0x20)\n      add\n      0x00\n      swap1\n      sload\n      swap1\n      0x0100\n      exp\n      swap1\n      div\n      0xffffffffffffffffffffffffffffffffffffffff\n      and\n        /* \"contracts/lottery.sol\":904:927  players[index].transfer */\n      0xffffffffffffffffffffffffffffffffffffffff\n      and\n        /* \"contracts/lottery.sol\":904:950  players[index].transfer(address(this).balance) */\n      0x08fc\n        /* \"contracts/lottery.sol\":928:949  address(this).balance */\n      selfbalance\n        /* \"contracts/lottery.sol\":904:950  players[index].transfer(address(this).balance) */\n      swap1\n      dup2\n      iszero\n      mul\n      swap1\n      mload(0x40)\n      0x00\n      mload(0x40)\n      dup1\n      dup4\n      sub\n      dup2\n      dup6\n      dup9\n      dup9\n      call\n      swap4\n      pop\n      pop\n      pop\n      pop\n      iszero\n      dup1\n      iszero\n      tag_45\n      jumpi\n      returndatasize\n      0x00\n      dup1\n      returndatacopy\n      revert(0x00, returndatasize)\n    tag_45:\n      pop\n        /* \"contracts/lottery.sol\":970:977  players */\n      0x02\n        /* \"contracts/lottery.sol\":978:983  index */\n      dup2\n        /* \"contracts/lottery.sol\":970:984  players[index] */\n      dup2\n      sload\n      dup2\n      lt\n      tag_46\n      jumpi\n      tag_47\n      tag_42\n      jump\t// in\n    tag_47:\n    tag_46:\n      swap1\n      0x00\n      mstore\n      keccak256(0x00, 0x20)\n      add\n      0x00\n      swap1\n      sload\n      swap1\n      0x0100\n      exp\n      swap1\n      div\n      0xffffffffffffffffffffffffffffffffffffffff\n      and\n        /* \"contracts/lottery.sol\":961:967  winner */\n      0x01\n      0x00\n        /* \"contracts/lottery.sol\":961:984  winner = players[index] */\n      0x0100\n      exp\n      dup2\n      sload\n      dup2\n      0xffffffffffffffffffffffffffffffffffffffff\n      mul\n      not\n      and\n      swap1\n      dup4\n      0xffffffffffffffffffffffffffffffffffffffff\n      and\n      mul\n      or\n      swap1\n      sstore\n      pop\n        /* \"contracts/lottery.sol\":1057:1058  0 */\n      0x00\n        /* \"contracts/lottery.sol\":1035:1059  new address payable[](0) */\n      0xffffffffffffffff\n      dup2\n      gt\n      iszero\n      tag_49\n      jumpi\n      tag_50\n      tag_51\n      jump\t// in\n    tag_50:\n    tag_49:\n      mload(0x40)\n      swap1\n      dup1\n      dup3\n      mstore\n      dup1\n      0x20\n      mul\n      0x20\n      add\n      dup3\n      add\n      0x40\n      mstore\n      dup1\n      iszero\n      tag_52\n      jumpi\n      dup2\n      0x20\n      add\n      0x20\n      dup3\n      mul\n      dup1\n      calldatasize\n      dup4\n      calldatacopy\n      dup1\n      dup3\n      add\n      swap2\n      pop\n      pop\n      swap1\n      pop\n    tag_52:\n      pop\n        /* \"contracts/lottery.sol\":1025:1032  players */\n      0x02\n        /* \"contracts/lottery.sol\":1025:1059  players = new address payable[](0) */\n      swap1\n      dup1\n      mload\n      swap1\n      0x20\n      add\n      swap1\n      tag_53\n      swap3\n      swap2\n      swap1\n      tag_54\n      jump\t// in\n    tag_53:\n      pop\n        /* \"contracts/lottery.sol\":801:1067  {... */\n      pop\n        /* \"contracts/lottery.sol\":762:1067  function pickWinner() public onlyOwner {... */\n      jump\t// out\n        /* \"contracts/lottery.sol\":548:711  function random() public view returns (uint8) {... */\n    tag_13:\n        /* \"contracts/lottery.sol\":587:592  uint8 */\n      0x00\n        /* \"contracts/lottery.sol\":699:702  251 */\n      0xfb\n        /* \"contracts/lottery.sol\":653:668  block.timestamp */\n      timestamp\n        /* \"contracts/lottery.sol\":670:686  block.difficulty */\n      prevrandao\n        /* \"contracts/lottery.sol\":688:695  players */\n      0x02\n        /* \"contracts/lottery.sol\":636:696  abi.encodePacked(block.timestamp, block.difficulty, players) */\n      add(0x20, mload(0x40))\n      tag_56\n      swap4\n      swap3\n      swap2\n      swap1\n      tag_57\n      jump\t// in\n    tag_56:\n      mload(0x40)\n      0x20\n      dup2\n      dup4\n      sub\n      sub\n      dup2\n      mstore\n      swap1\n      0x40\n      mstore\n        /* \"contracts/lottery.sol\":626:697  keccak256(abi.encodePacked(block.timestamp, block.difficulty, players)) */\n      dup1\n      mload\n      swap1\n      0x20\n      add\n      keccak256\n        /* \"contracts/lottery.sol\":618:698  uint256(keccak256(abi.encodePacked(block.timestamp, block.difficulty, players))) */\n      0x00\n      shr\n        /* \"contracts/lottery.sol\":618:702  uint256(keccak256(abi.encodePacked(block.timestamp, block.difficulty, players)))%251 */\n      tag_58\n      swap2\n      swap1\n      tag_39\n      jump\t// in\n    tag_58:\n        /* \"contracts/lottery.sol\":605:703  return uint8(uint256(keccak256(abi.encodePacked(block.timestamp, block.difficulty, players)))%251) */\n      swap1\n      pop\n        /* \"contracts/lottery.sol\":548:711  function random() public view returns (uint8) {... */\n      swap1\n      jump\t// out\n        /* \"contracts/lottery.sol\":84:104  address public owner */\n    tag_18:\n      0x00\n      dup1\n      sload\n      swap1\n      0x0100\n      exp\n      swap1\n      div\n      0xffffffffffffffffffffffffffffffffffffffff\n      and\n      dup2\n      jump\t// out\n        /* \"contracts/lottery.sol\":111:132  address public winner */\n    tag_23:\n      0x01\n      0x00\n      swap1\n      sload\n      swap1\n      0x0100\n      exp\n      swap1\n      div\n      0xffffffffffffffffffffffffffffffffffffffff\n      and\n      dup2\n      jump\t// out\n        /* \"contracts/lottery.sol\":362:508  function enter() public payable {... */\n    tag_26:\n        /* \"contracts/lottery.sol\":426:433  1 ether */\n      0x0de0b6b3a7640000\n        /* \"contracts/lottery.sol\":413:422  msg.value */\n      callvalue\n        /* \"contracts/lottery.sol\":413:433  msg.value == 1 ether */\n      eq\n        /* \"contracts/lottery.sol\":405:456  require(msg.value == 1 ether, \"Insufficient Funds\") */\n      tag_60\n      jumpi\n      mload(0x40)\n      0x08c379a000000000000000000000000000000000000000000000000000000000\n      dup2\n      mstore\n      0x04\n      add\n      tag_61\n      swap1\n      tag_62\n      jump\t// in\n    tag_61:\n      mload(0x40)\n      dup1\n      swap2\n      sub\n      swap1\n      revert\n    tag_60:\n        /* \"contracts/lottery.sol\":467:474  players */\n      0x02\n        /* \"contracts/lottery.sol\":488:498  msg.sender */\n      caller\n        /* \"contracts/lottery.sol\":467:500  players.push(payable(msg.sender)) */\n      swap1\n      dup1\n      0x01\n      dup2\n      sload\n      add\n      dup1\n      dup3\n      sstore\n      dup1\n      swap2\n      pop\n      pop\n      0x01\n      swap1\n      sub\n      swap1\n      0x00\n      mstore\n      keccak256(0x00, 0x20)\n      add\n      0x00\n      swap1\n      swap2\n      swap1\n      swap2\n      swap1\n      swap2\n      0x0100\n      exp\n      dup2\n      sload\n      dup2\n      0xffffffffffffffffffffffffffffffffffffffff\n      mul\n      not\n      and\n      swap1\n      dup4\n      0xffffffffffffffffffffffffffffffffffffffff\n      and\n      mul\n      or\n      swap1\n      sstore\n      pop\n        /* \"contracts/lottery.sol\":362:508  function enter() public payable {... */\n      jump\t// out\n        /* \"contracts/lottery.sol\":139:172  address payable [] public players */\n    tag_31:\n      0x02\n      dup2\n      dup2\n      sload\n      dup2\n      lt\n      tag_64\n      jumpi\n      0x00\n      dup1\n      revert\n    tag_64:\n      swap1\n      0x00\n      mstore\n      keccak256(0x00, 0x20)\n      add\n      0x00\n      swap2\n      pop\n      sload\n      swap1\n      0x0100\n      exp\n      swap1\n      div\n      0xffffffffffffffffffffffffffffffffffffffff\n      and\n      dup2\n      jump\t// out\n    tag_54:\n      dup3\n      dup1\n      sload\n      dup3\n      dup3\n      sstore\n      swap1\n      0x00\n      mstore\n      keccak256(0x00, 0x20)\n      swap1\n      dup2\n      add\n      swap3\n      dup3\n      iszero\n      tag_66\n      jumpi\n      swap2\n      0x20\n      mul\n      dup3\n      add\n    tag_67:\n      dup3\n      dup2\n      gt\n      iszero\n      tag_68\n      jumpi\n      dup3\n      mload\n      dup3\n      exp(0x0100, 0x00)\n      dup2\n      sload\n      dup2\n      0xffffffffffffffffffffffffffffffffffffffff\n      mul\n      not\n      and\n      swap1\n      dup4\n      0xffffffffffffffffffffffffffffffffffffffff\n      and\n      mul\n      or\n      swap1\n      sstore\n      pop\n      swap2\n      0x20\n      add\n      swap2\n      swap1\n      0x01\n      add\n      swap1\n      jump(tag_67)\n    tag_68:\n    tag_66:\n      pop\n      swap1\n      pop\n      tag_69\n      swap2\n      swap1\n      tag_70\n      jump\t// in\n    tag_69:\n      pop\n      swap1\n      jump\t// out\n    tag_70:\n    tag_71:\n      dup1\n      dup3\n      gt\n      iszero\n      tag_72\n      jumpi\n      0x00\n      dup2\n      0x00\n      swap1\n      sstore\n      pop\n      0x01\n      add\n      jump(tag_71)\n    tag_72:\n      pop\n      swap1\n      jump\t// out\n        /* \"#utility.yul\":7:93   */\n    tag_73:\n        /* \"#utility.yul\":42:49   */\n      0x00\n        /* \"#utility.yul\":82:86   */\n      0xff\n        /* \"#utility.yul\":75:80   */\n      dup3\n        /* \"#utility.yul\":71:87   */\n      and\n        /* \"#utility.yul\":60:87   */\n      swap1\n      pop\n        /* \"#utility.yul\":7:93   */\n      swap2\n      swap1\n      pop\n      jump\t// out\n        /* \"#utility.yul\":99:211   */\n    tag_74:\n        /* \"#utility.yul\":182:204   */\n      tag_106\n        /* \"#utility.yul\":198:203   */\n      dup2\n        /* \"#utility.yul\":182:204   */\n      tag_73\n      jump\t// in\n    tag_106:\n        /* \"#utility.yul\":177:180   */\n      dup3\n        /* \"#utility.yul\":170:205   */\n      mstore\n        /* \"#utility.yul\":99:211   */\n      pop\n      pop\n      jump\t// out\n        /* \"#utility.yul\":217:431   */\n    tag_15:\n        /* \"#utility.yul\":306:310   */\n      0x00\n        /* \"#utility.yul\":344:346   */\n      0x20\n        /* \"#utility.yul\":333:342   */\n      dup3\n        /* \"#utility.yul\":329:347   */\n      add\n        /* \"#utility.yul\":321:347   */\n      swap1\n      pop\n        /* \"#utility.yul\":357:424   */\n      tag_108\n        /* \"#utility.yul\":421:422   */\n      0x00\n        /* \"#utility.yul\":410:419   */\n      dup4\n        /* \"#utility.yul\":406:423   */\n      add\n        /* \"#utility.yul\":397:403   */\n      dup5\n        /* \"#utility.yul\":357:424   */\n      tag_74\n      jump\t// in\n    tag_108:\n        /* \"#utility.yul\":217:431   */\n      swap3\n      swap2\n      pop\n      pop\n      jump\t// out\n        /* \"#utility.yul\":437:563   */\n    tag_75:\n        /* \"#utility.yul\":474:481   */\n      0x00\n        /* \"#utility.yul\":514:556   */\n      0xffffffffffffffffffffffffffffffffffffffff\n        /* \"#utility.yul\":507:512   */\n      dup3\n        /* \"#utility.yul\":503:557   */\n      and\n        /* \"#utility.yul\":492:557   */\n      swap1\n      pop\n        /* \"#utility.yul\":437:563   */\n      swap2\n      swap1\n      pop\n      jump\t// out\n        /* \"#utility.yul\":569:665   */\n    tag_76:\n        /* \"#utility.yul\":606:613   */\n      0x00\n        /* \"#utility.yul\":635:659   */\n      tag_111\n        /* \"#utility.yul\":653:658   */\n      dup3\n        /* \"#utility.yul\":635:659   */\n      tag_75\n      jump\t// in\n    tag_111:\n        /* \"#utility.yul\":624:659   */\n      swap1\n      pop\n        /* \"#utility.yul\":569:665   */\n      swap2\n      swap1\n      pop\n      jump\t// out\n        /* \"#utility.yul\":671:789   */\n    tag_77:\n        /* \"#utility.yul\":758:782   */\n      tag_113\n        /* \"#utility.yul\":776:781   */\n      dup2\n        /* \"#utility.yul\":758:782   */\n      tag_76\n      jump\t// in\n    tag_113:\n        /* \"#utility.yul\":753:756   */\n      dup3\n        /* \"#utility.yul\":746:783   */\n      mstore\n        /* \"#utility.yul\":671:789   */\n      pop\n      pop\n      jump\t// out\n        /* \"#utility.yul\":795:1017   */\n    tag_20:\n        /* \"#utility.yul\":888:892   */\n      0x00\n        /* \"#utility.yul\":926:928   */\n      0x20\n        /* \"#utility.yul\":915:924   */\n      dup3\n        /* \"#utility.yul\":911:929   */\n      add\n        /* \"#utility.yul\":903:929   */\n      swap1\n      pop\n        /* \"#utility.yul\":939:1010   */\n      tag_115\n        /* \"#utility.yul\":1007:1008   */\n      0x00\n        /* \"#utility.yul\":996:1005   */\n      dup4\n        /* \"#utility.yul\":992:1009   */\n      add\n        /* \"#utility.yul\":983:989   */\n      dup5\n        /* \"#utility.yul\":939:1010   */\n      tag_77\n      jump\t// in\n    tag_115:\n        /* \"#utility.yul\":795:1017   */\n      swap3\n      swap2\n      pop\n      pop\n      jump\t// out\n        /* \"#utility.yul\":1104:1221   */\n    tag_79:\n        /* \"#utility.yul\":1213:1214   */\n      0x00\n        /* \"#utility.yul\":1210:1211   */\n      dup1\n        /* \"#utility.yul\":1203:1215   */\n      revert\n        /* \"#utility.yul\":1350:1427   */\n    tag_81:\n        /* \"#utility.yul\":1387:1394   */\n      0x00\n        /* \"#utility.yul\":1416:1421   */\n      dup2\n        /* \"#utility.yul\":1405:1421   */\n      swap1\n      pop\n        /* \"#utility.yul\":1350:1427   */\n      swap2\n      swap1\n      pop\n      jump\t// out\n        /* \"#utility.yul\":1433:1555   */\n    tag_82:\n        /* \"#utility.yul\":1506:1530   */\n      tag_121\n        /* \"#utility.yul\":1524:1529   */\n      dup2\n        /* \"#utility.yul\":1506:1530   */\n      tag_81\n      jump\t// in\n    tag_121:\n        /* \"#utility.yul\":1499:1504   */\n      dup2\n        /* \"#utility.yul\":1496:1531   */\n      eq\n        /* \"#utility.yul\":1486:1549   */\n      tag_122\n      jumpi\n        /* \"#utility.yul\":1545:1546   */\n      0x00\n        /* \"#utility.yul\":1542:1543   */\n      dup1\n        /* \"#utility.yul\":1535:1547   */\n      revert\n        /* \"#utility.yul\":1486:1549   */\n    tag_122:\n        /* \"#utility.yul\":1433:1555   */\n      pop\n      jump\t// out\n        /* \"#utility.yul\":1561:1700   */\n    tag_83:\n        /* \"#utility.yul\":1607:1612   */\n      0x00\n        /* \"#utility.yul\":1645:1651   */\n      dup2\n        /* \"#utility.yul\":1632:1652   */\n      calldataload\n        /* \"#utility.yul\":1623:1652   */\n      swap1\n      pop\n        /* \"#utility.yul\":1661:1694   */\n      tag_124\n        /* \"#utility.yul\":1688:1693   */\n      dup2\n        /* \"#utility.yul\":1661:1694   */\n      tag_82\n      jump\t// in\n    tag_124:\n        /* \"#utility.yul\":1561:1700   */\n      swap3\n      swap2\n      pop\n      pop\n      jump\t// out\n        /* \"#utility.yul\":1706:2035   */\n    tag_30:\n        /* \"#utility.yul\":1765:1771   */\n      0x00\n        /* \"#utility.yul\":1814:1816   */\n      0x20\n        /* \"#utility.yul\":1802:1811   */\n      dup3\n        /* \"#utility.yul\":1793:1800   */\n      dup5\n        /* \"#utility.yul\":1789:1812   */\n      sub\n        /* \"#utility.yul\":1785:1817   */\n      slt\n        /* \"#utility.yul\":1782:1901   */\n      iszero\n      tag_126\n      jumpi\n        /* \"#utility.yul\":1820:1899   */\n      tag_127\n      tag_79\n      jump\t// in\n    tag_127:\n        /* \"#utility.yul\":1782:1901   */\n    tag_126:\n        /* \"#utility.yul\":1940:1941   */\n      0x00\n        /* \"#utility.yul\":1965:2018   */\n      tag_128\n        /* \"#utility.yul\":2010:2017   */\n      dup5\n        /* \"#utility.yul\":2001:2007   */\n      dup3\n        /* \"#utility.yul\":1990:1999   */\n      dup6\n        /* \"#utility.yul\":1986:2008   */\n      add\n        /* \"#utility.yul\":1965:2018   */\n      tag_83\n      jump\t// in\n    tag_128:\n        /* \"#utility.yul\":1955:2018   */\n      swap2\n      pop\n        /* \"#utility.yul\":1911:2028   */\n      pop\n        /* \"#utility.yul\":1706:2035   */\n      swap3\n      swap2\n      pop\n      pop\n      jump\t// out\n        /* \"#utility.yul\":2041:2145   */\n    tag_84:\n        /* \"#utility.yul\":2086:2093   */\n      0x00\n        /* \"#utility.yul\":2115:2139   */\n      tag_130\n        /* \"#utility.yul\":2133:2138   */\n      dup3\n        /* \"#utility.yul\":2115:2139   */\n      tag_75\n      jump\t// in\n    tag_130:\n        /* \"#utility.yul\":2104:2139   */\n      swap1\n      pop\n        /* \"#utility.yul\":2041:2145   */\n      swap2\n      swap1\n      pop\n      jump\t// out\n        /* \"#utility.yul\":2151:2293   */\n    tag_85:\n        /* \"#utility.yul\":2254:2286   */\n      tag_132\n        /* \"#utility.yul\":2280:2285   */\n      dup2\n        /* \"#utility.yul\":2254:2286   */\n      tag_84\n      jump\t// in\n    tag_132:\n        /* \"#utility.yul\":2249:2252   */\n      dup3\n        /* \"#utility.yul\":2242:2287   */\n      mstore\n        /* \"#utility.yul\":2151:2293   */\n      pop\n      pop\n      jump\t// out\n        /* \"#utility.yul\":2299:2553   */\n    tag_33:\n        /* \"#utility.yul\":2408:2412   */\n      0x00\n        /* \"#utility.yul\":2446:2448   */\n      0x20\n        /* \"#utility.yul\":2435:2444   */\n      dup3\n        /* \"#utility.yul\":2431:2449   */\n      add\n        /* \"#utility.yul\":2423:2449   */\n      swap1\n      pop\n        /* \"#utility.yul\":2459:2546   */\n      tag_134\n        /* \"#utility.yul\":2543:2544   */\n      0x00\n        /* \"#utility.yul\":2532:2541   */\n      dup4\n        /* \"#utility.yul\":2528:2545   */\n      add\n        /* \"#utility.yul\":2519:2525   */\n      dup5\n        /* \"#utility.yul\":2459:2546   */\n      tag_85\n      jump\t// in\n    tag_134:\n        /* \"#utility.yul\":2299:2553   */\n      swap3\n      swap2\n      pop\n      pop\n      jump\t// out\n        /* \"#utility.yul\":2559:2739   */\n    tag_86:\n        /* \"#utility.yul\":2607:2684   */\n      0x4e487b7100000000000000000000000000000000000000000000000000000000\n        /* \"#utility.yul\":2604:2605   */\n      0x00\n        /* \"#utility.yul\":2597:2685   */\n      mstore\n        /* \"#utility.yul\":2704:2708   */\n      0x12\n        /* \"#utility.yul\":2701:2702   */\n      0x04\n        /* \"#utility.yul\":2694:2709   */\n      mstore\n        /* \"#utility.yul\":2728:2732   */\n      0x24\n        /* \"#utility.yul\":2725:2726   */\n      0x00\n        /* \"#utility.yul\":2718:2733   */\n      revert\n        /* \"#utility.yul\":2745:2921   */\n    tag_39:\n        /* \"#utility.yul\":2777:2778   */\n      0x00\n        /* \"#utility.yul\":2794:2814   */\n      tag_137\n        /* \"#utility.yul\":2812:2813   */\n      dup3\n        /* \"#utility.yul\":2794:2814   */\n      tag_81\n      jump\t// in\n    tag_137:\n        /* \"#utility.yul\":2789:2814   */\n      swap2\n      pop\n        /* \"#utility.yul\":2828:2848   */\n      tag_138\n        /* \"#utility.yul\":2846:2847   */\n      dup4\n        /* \"#utility.yul\":2828:2848   */\n      tag_81\n      jump\t// in\n    tag_138:\n        /* \"#utility.yul\":2823:2848   */\n      swap3\n      pop\n        /* \"#utility.yul\":2867:2868   */\n      dup3\n        /* \"#utility.yul\":2857:2892   */\n      tag_139\n      jumpi\n        /* \"#utility.yul\":2872:2890   */\n      tag_140\n      tag_86\n      jump\t// in\n    tag_140:\n        /* \"#utility.yul\":2857:2892   */\n    tag_139:\n        /* \"#utility.yul\":2913:2914   */\n      dup3\n        /* \"#utility.yul\":2910:2911   */\n      dup3\n        /* \"#utility.yul\":2906:2915   */\n      mod\n        /* \"#utility.yul\":2901:2915   */\n      swap1\n      pop\n        /* \"#utility.yul\":2745:2921   */\n      swap3\n      swap2\n      pop\n      pop\n      jump\t// out\n        /* \"#utility.yul\":2927:3107   */\n    tag_42:\n        /* \"#utility.yul\":2975:3052   */\n      0x4e487b7100000000000000000000000000000000000000000000000000000000\n        /* \"#utility.yul\":2972:2973   */\n      0x00\n        /* \"#utility.yul\":2965:3053   */\n      mstore\n        /* \"#utility.yul\":3072:3076   */\n      0x32\n        /* \"#utility.yul\":3069:3070   */\n      0x04\n        /* \"#utility.yul\":3062:3077   */\n      mstore\n        /* \"#utility.yul\":3096:3100   */\n      0x24\n        /* \"#utility.yul\":3093:3094   */\n      0x00\n        /* \"#utility.yul\":3086:3101   */\n      revert\n        /* \"#utility.yul\":3113:3293   */\n    tag_51:\n        /* \"#utility.yul\":3161:3238   */\n      0x4e487b7100000000000000000000000000000000000000000000000000000000\n        /* \"#utility.yul\":3158:3159   */\n      0x00\n        /* \"#utility.yul\":3151:3239   */\n      mstore\n        /* \"#utility.yul\":3258:3262   */\n      0x41\n        /* \"#utility.yul\":3255:3256   */\n      0x04\n        /* \"#utility.yul\":3248:3263   */\n      mstore\n        /* \"#utility.yul\":3282:3286   */\n      0x24\n        /* \"#utility.yul\":3279:3280   */\n      0x00\n        /* \"#utility.yul\":3272:3287   */\n      revert\n        /* \"#utility.yul\":3299:3378   */\n    tag_87:\n        /* \"#utility.yul\":3338:3345   */\n      0x00\n        /* \"#utility.yul\":3367:3372   */\n      dup2\n        /* \"#utility.yul\":3356:3372   */\n      swap1\n      pop\n        /* \"#utility.yul\":3299:3378   */\n      swap2\n      swap1\n      pop\n      jump\t// out\n        /* \"#utility.yul\":3384:3541   */\n    tag_88:\n        /* \"#utility.yul\":3489:3534   */\n      tag_145\n        /* \"#utility.yul\":3509:3533   */\n      tag_146\n        /* \"#utility.yul\":3527:3532   */\n      dup3\n        /* \"#utility.yul\":3509:3533   */\n      tag_81\n      jump\t// in\n    tag_146:\n        /* \"#utility.yul\":3489:3534   */\n      tag_87\n      jump\t// in\n    tag_145:\n        /* \"#utility.yul\":3484:3487   */\n      dup3\n        /* \"#utility.yul\":3477:3535   */\n      mstore\n        /* \"#utility.yul\":3384:3541   */\n      pop\n      pop\n      jump\t// out\n        /* \"#utility.yul\":3547:3666   */\n    tag_89:\n        /* \"#utility.yul\":3619:3625   */\n      0x00\n        /* \"#utility.yul\":3653:3658   */\n      dup2\n        /* \"#utility.yul\":3647:3659   */\n      sload\n        /* \"#utility.yul\":3637:3659   */\n      swap1\n      pop\n        /* \"#utility.yul\":3547:3666   */\n      swap2\n      swap1\n      pop\n      jump\t// out\n        /* \"#utility.yul\":3672:3843   */\n    tag_90:\n        /* \"#utility.yul\":3797:3808   */\n      0x00\n        /* \"#utility.yul\":3834:3837   */\n      dup2\n        /* \"#utility.yul\":3819:3837   */\n      swap1\n      pop\n        /* \"#utility.yul\":3672:3843   */\n      swap3\n      swap2\n      pop\n      pop\n      jump\t// out\n        /* \"#utility.yul\":3849:4013   */\n    tag_91:\n        /* \"#utility.yul\":3921:3925   */\n      0x00\n        /* \"#utility.yul\":3944:3947   */\n      dup2\n        /* \"#utility.yul\":3936:3947   */\n      swap1\n      pop\n        /* \"#utility.yul\":3967:3970   */\n      dup2\n        /* \"#utility.yul\":3964:3965   */\n      0x00\n        /* \"#utility.yul\":3957:3971   */\n      mstore\n        /* \"#utility.yul\":4001:4005   */\n      0x20\n        /* \"#utility.yul\":3998:3999   */\n      0x00\n        /* \"#utility.yul\":3988:4006   */\n      keccak256\n        /* \"#utility.yul\":3980:4006   */\n      swap1\n      pop\n        /* \"#utility.yul\":3849:4013   */\n      swap2\n      swap1\n      pop\n      jump\t// out\n        /* \"#utility.yul\":4019:4159   */\n    tag_92:\n        /* \"#utility.yul\":4120:4152   */\n      tag_151\n        /* \"#utility.yul\":4146:4151   */\n      dup2\n        /* \"#utility.yul\":4120:4152   */\n      tag_84\n      jump\t// in\n    tag_151:\n        /* \"#utility.yul\":4115:4118   */\n      dup3\n        /* \"#utility.yul\":4108:4153   */\n      mstore\n        /* \"#utility.yul\":4019:4159   */\n      pop\n      pop\n      jump\t// out\n        /* \"#utility.yul\":4165:4392   */\n    tag_93:\n        /* \"#utility.yul\":4258:4268   */\n      0x00\n        /* \"#utility.yul\":4279:4349   */\n      tag_153\n        /* \"#utility.yul\":4345:4348   */\n      dup4\n        /* \"#utility.yul\":4337:4343   */\n      dup4\n        /* \"#utility.yul\":4279:4349   */\n      tag_92\n      jump\t// in\n    tag_153:\n        /* \"#utility.yul\":4381:4385   */\n      0x20\n        /* \"#utility.yul\":4376:4379   */\n      dup4\n        /* \"#utility.yul\":4372:4386   */\n      add\n        /* \"#utility.yul\":4358:4386   */\n      swap1\n      pop\n        /* \"#utility.yul\":4165:4392   */\n      swap3\n      swap2\n      pop\n      pop\n      jump\t// out\n        /* \"#utility.yul\":4398:4500   */\n    tag_94:\n        /* \"#utility.yul\":4440:4448   */\n      0x00\n        /* \"#utility.yul\":4487:4492   */\n      dup2\n        /* \"#utility.yul\":4484:4485   */\n      0x00\n        /* \"#utility.yul\":4480:4493   */\n      shr\n        /* \"#utility.yul\":4459:4493   */\n      swap1\n      pop\n        /* \"#utility.yul\":4398:4500   */\n      swap2\n      swap1\n      pop\n      jump\t// out\n        /* \"#utility.yul\":4506:4653   */\n    tag_95:\n        /* \"#utility.yul\":4564:4571   */\n      0x00\n        /* \"#utility.yul\":4604:4646   */\n      0xffffffffffffffffffffffffffffffffffffffff\n        /* \"#utility.yul\":4597:4602   */\n      dup3\n        /* \"#utility.yul\":4593:4647   */\n      and\n        /* \"#utility.yul\":4582:4647   */\n      swap1\n      pop\n        /* \"#utility.yul\":4506:4653   */\n      swap2\n      swap1\n      pop\n      jump\t// out\n        /* \"#utility.yul\":4659:4841   */\n    tag_96:\n        /* \"#utility.yul\":4736:4741   */\n      0x00\n        /* \"#utility.yul\":4761:4835   */\n      tag_157\n        /* \"#utility.yul\":4800:4834   */\n      tag_158\n        /* \"#utility.yul\":4823:4833   */\n      dup4\n        /* \"#utility.yul\":4800:4834   */\n      tag_94\n      jump\t// in\n    tag_158:\n        /* \"#utility.yul\":4761:4835   */\n      tag_95\n      jump\t// in\n    tag_157:\n        /* \"#utility.yul\":4752:4835   */\n      swap1\n      pop\n        /* \"#utility.yul\":4659:4841   */\n      swap2\n      swap1\n      pop\n      jump\t// out\n        /* \"#utility.yul\":4847:5007   */\n    tag_97:\n        /* \"#utility.yul\":4910:4915   */\n      0x00\n        /* \"#utility.yul\":4935:5000   */\n      tag_160\n        /* \"#utility.yul\":4994:4998   */\n      dup3\n        /* \"#utility.yul\":4988:4999   */\n      sload\n        /* \"#utility.yul\":4935:5000   */\n      tag_96\n      jump\t// in\n    tag_160:\n        /* \"#utility.yul\":4926:5000   */\n      swap1\n      pop\n        /* \"#utility.yul\":4847:5007   */\n      swap2\n      swap1\n      pop\n      jump\t// out\n        /* \"#utility.yul\":5013:5131   */\n    tag_98:\n        /* \"#utility.yul\":5088:5092   */\n      0x00\n        /* \"#utility.yul\":5120:5124   */\n      0x01\n        /* \"#utility.yul\":5115:5118   */\n      dup3\n        /* \"#utility.yul\":5111:5125   */\n      add\n        /* \"#utility.yul\":5103:5125   */\n      swap1\n      pop\n        /* \"#utility.yul\":5013:5131   */\n      swap2\n      swap1\n      pop\n      jump\t// out\n        /* \"#utility.yul\":5183:6050   */\n    tag_99:\n        /* \"#utility.yul\":5333:5336   */\n      0x00\n        /* \"#utility.yul\":5362:5421   */\n      tag_163\n        /* \"#utility.yul\":5415:5420   */\n      dup3\n        /* \"#utility.yul\":5362:5421   */\n      tag_89\n      jump\t// in\n    tag_163:\n        /* \"#utility.yul\":5437:5549   */\n      tag_164\n        /* \"#utility.yul\":5542:5548   */\n      dup2\n        /* \"#utility.yul\":5537:5540   */\n      dup6\n        /* \"#utility.yul\":5437:5549   */\n      tag_90\n      jump\t// in\n    tag_164:\n        /* \"#utility.yul\":5430:5549   */\n      swap4\n      pop\n        /* \"#utility.yul\":5573:5634   */\n      tag_165\n        /* \"#utility.yul\":5628:5633   */\n      dup4\n        /* \"#utility.yul\":5573:5634   */\n      tag_91\n      jump\t// in\n    tag_165:\n        /* \"#utility.yul\":5657:5664   */\n      dup1\n        /* \"#utility.yul\":5688:5689   */\n      0x00\n        /* \"#utility.yul\":5673:6025   */\n    tag_166:\n        /* \"#utility.yul\":5698:5704   */\n      dup4\n        /* \"#utility.yul\":5695:5696   */\n      dup2\n        /* \"#utility.yul\":5692:5705   */\n      lt\n        /* \"#utility.yul\":5673:6025   */\n      iszero\n      tag_168\n      jumpi\n        /* \"#utility.yul\":5768:5820   */\n      tag_169\n        /* \"#utility.yul\":5813:5819   */\n      dup3\n        /* \"#utility.yul\":5768:5820   */\n      tag_97\n      jump\t// in\n    tag_169:\n        /* \"#utility.yul\":5840:5927   */\n      tag_170\n        /* \"#utility.yul\":5923:5926   */\n      dup9\n        /* \"#utility.yul\":5908:5921   */\n      dup3\n        /* \"#utility.yul\":5840:5927   */\n      tag_93\n      jump\t// in\n    tag_170:\n        /* \"#utility.yul\":5833:5927   */\n      swap8\n      pop\n        /* \"#utility.yul\":5950:6015   */\n      tag_171\n        /* \"#utility.yul\":6008:6014   */\n      dup4\n        /* \"#utility.yul\":5950:6015   */\n      tag_98\n      jump\t// in\n    tag_171:\n        /* \"#utility.yul\":5940:6015   */\n      swap3\n      pop\n        /* \"#utility.yul\":5733:6025   */\n      pop\n        /* \"#utility.yul\":5720:5721   */\n      0x01\n        /* \"#utility.yul\":5717:5718   */\n      dup2\n        /* \"#utility.yul\":5713:5722   */\n      add\n        /* \"#utility.yul\":5708:5722   */\n      swap1\n      pop\n        /* \"#utility.yul\":5673:6025   */\n      jump(tag_166)\n    tag_168:\n        /* \"#utility.yul\":5677:5691   */\n      pop\n        /* \"#utility.yul\":6041:6044   */\n      dup6\n        /* \"#utility.yul\":6034:6044   */\n      swap4\n      pop\n        /* \"#utility.yul\":5338:6050   */\n      pop\n      pop\n      pop\n        /* \"#utility.yul\":5183:6050   */\n      swap3\n      swap2\n      pop\n      pop\n      jump\t// out\n        /* \"#utility.yul\":6056:6699   */\n    tag_57:\n        /* \"#utility.yul\":6287:6290   */\n      0x00\n        /* \"#utility.yul\":6302:6377   */\n      tag_173\n        /* \"#utility.yul\":6373:6376   */\n      dup3\n        /* \"#utility.yul\":6364:6370   */\n      dup7\n        /* \"#utility.yul\":6302:6377   */\n      tag_88\n      jump\t// in\n    tag_173:\n        /* \"#utility.yul\":6402:6404   */\n      0x20\n        /* \"#utility.yul\":6397:6400   */\n      dup3\n        /* \"#utility.yul\":6393:6405   */\n      add\n        /* \"#utility.yul\":6386:6405   */\n      swap2\n      pop\n        /* \"#utility.yul\":6415:6490   */\n      tag_174\n        /* \"#utility.yul\":6486:6489   */\n      dup3\n        /* \"#utility.yul\":6477:6483   */\n      dup6\n        /* \"#utility.yul\":6415:6490   */\n      tag_88\n      jump\t// in\n    tag_174:\n        /* \"#utility.yul\":6515:6517   */\n      0x20\n        /* \"#utility.yul\":6510:6513   */\n      dup3\n        /* \"#utility.yul\":6506:6518   */\n      add\n        /* \"#utility.yul\":6499:6518   */\n      swap2\n      pop\n        /* \"#utility.yul\":6535:6673   */\n      tag_175\n        /* \"#utility.yul\":6669:6672   */\n      dup3\n        /* \"#utility.yul\":6660:6666   */\n      dup5\n        /* \"#utility.yul\":6535:6673   */\n      tag_99\n      jump\t// in\n    tag_175:\n        /* \"#utility.yul\":6528:6673   */\n      swap2\n      pop\n        /* \"#utility.yul\":6690:6693   */\n      dup2\n        /* \"#utility.yul\":6683:6693   */\n      swap1\n      pop\n        /* \"#utility.yul\":6056:6699   */\n      swap5\n      swap4\n      pop\n      pop\n      pop\n      pop\n      jump\t// out\n        /* \"#utility.yul\":6705:6874   */\n    tag_100:\n        /* \"#utility.yul\":6789:6800   */\n      0x00\n        /* \"#utility.yul\":6823:6829   */\n      dup3\n        /* \"#utility.yul\":6818:6821   */\n      dup3\n        /* \"#utility.yul\":6811:6830   */\n      mstore\n        /* \"#utility.yul\":6863:6867   */\n      0x20\n        /* \"#utility.yul\":6858:6861   */\n      dup3\n        /* \"#utility.yul\":6854:6868   */\n      add\n        /* \"#utility.yul\":6839:6868   */\n      swap1\n      pop\n        /* \"#utility.yul\":6705:6874   */\n      swap3\n      swap2\n      pop\n      pop\n      jump\t// out\n        /* \"#utility.yul\":6880:7048   */\n    tag_101:\n        /* \"#utility.yul\":7020:7040   */\n      0x496e73756666696369656e742046756e64730000000000000000000000000000\n        /* \"#utility.yul\":7016:7017   */\n      0x00\n        /* \"#utility.yul\":7008:7014   */\n      dup3\n        /* \"#utility.yul\":7004:7018   */\n      add\n        /* \"#utility.yul\":6997:7041   */\n      mstore\n        /* \"#utility.yul\":6880:7048   */\n      pop\n      jump\t// out\n        /* \"#utility.yul\":7054:7420   */\n    tag_102:\n        /* \"#utility.yul\":7196:7199   */\n      0x00\n        /* \"#utility.yul\":7217:7284   */\n      tag_179\n        /* \"#utility.yul\":7281:7283   */\n      0x12\n        /* \"#utility.yul\":7276:7279   */\n      dup4\n        /* \"#utility.yul\":7217:7284   */\n      tag_100\n      jump\t// in\n    tag_179:\n        /* \"#utility.yul\":7210:7284   */\n      swap2\n      pop\n        /* \"#utility.yul\":7293:7386   */\n      tag_180\n        /* \"#utility.yul\":7382:7385   */\n      dup3\n        /* \"#utility.yul\":7293:7386   */\n      tag_101\n      jump\t// in\n    tag_180:\n        /* \"#utility.yul\":7411:7413   */\n      0x20\n        /* \"#utility.yul\":7406:7409   */\n      dup3\n        /* \"#utility.yul\":7402:7414   */\n      add\n        /* \"#utility.yul\":7395:7414   */\n      swap1\n      pop\n        /* \"#utility.yul\":7054:7420   */\n      swap2\n      swap1\n      pop\n      jump\t// out\n        /* \"#utility.yul\":7426:7845   */\n    tag_62:\n        /* \"#utility.yul\":7592:7596   */\n      0x00\n        /* \"#utility.yul\":7630:7632   */\n      0x20\n        /* \"#utility.yul\":7619:7628   */\n      dup3\n        /* \"#utility.yul\":7615:7633   */\n      add\n        /* \"#utility.yul\":7607:7633   */\n      swap1\n      pop\n        /* \"#utility.yul\":7679:7688   */\n      dup2\n        /* \"#utility.yul\":7673:7677   */\n      dup2\n        /* \"#utility.yul\":7669:7689   */\n      sub\n        /* \"#utility.yul\":7665:7666   */\n      0x00\n        /* \"#utility.yul\":7654:7663   */\n      dup4\n        /* \"#utility.yul\":7650:7667   */\n      add\n        /* \"#utility.yul\":7643:7690   */\n      mstore\n        /* \"#utility.yul\":7707:7838   */\n      tag_182\n        /* \"#utility.yul\":7833:7837   */\n      dup2\n        /* \"#utility.yul\":7707:7838   */\n      tag_102\n      jump\t// in\n    tag_182:\n        /* \"#utility.yul\":7699:7838   */\n      swap1\n      pop\n        /* \"#utility.yul\":7426:7845   */\n      swap2\n      swap1\n      pop\n      jump\t// out\n\n    auxdata: 0xa2646970667358221220f83fdb9aae2ccca8506c3c2756fd104721bccbe4a2a7feea86fcb937edd252d364736f6c63430008120033\n}\n",
				"bytecode": {
					"linkReferences": {},
					"object": "608060405234801561001057600080fd5b50336000806101000a81548173ffffffffffffffffffffffffffffffffffffffff021916908373ffffffffffffffffffffffffffffffffffffffff160217905550610958806100606000396000f3fe6080604052600436106100555760003560e01c80635d495aea1461005a5780635ec01e4d146100715780638da5cb5b1461009c578063dfbf53ae146100c7578063e97dcb62146100f2578063f71d96cb146100fc575b600080fd5b34801561006657600080fd5b5061006f610139565b005b34801561007d57600080fd5b50610086610317565b6040516100939190610554565b60405180910390f35b3480156100a857600080fd5b506100b1610359565b6040516100be91906105b0565b60405180910390f35b3480156100d357600080fd5b506100dc61037d565b6040516100e991906105b0565b60405180910390f35b6100fa6103a3565b005b34801561010857600080fd5b50610123600480360381019061011e9190610606565b610452565b6040516101309190610654565b60405180910390f35b60008054906101000a900473ffffffffffffffffffffffffffffffffffffffff1673ffffffffffffffffffffffffffffffffffffffff163373ffffffffffffffffffffffffffffffffffffffff161461019157600080fd5b60006002805490506101a1610317565b60ff166101ae919061069e565b9050600281815481106101c4576101c36106cf565b5b9060005260206000200160009054906101000a900473ffffffffffffffffffffffffffffffffffffffff1673ffffffffffffffffffffffffffffffffffffffff166108fc479081150290604051600060405180830381858888f19350505050158015610234573d6000803e3d6000fd5b5060028181548110610249576102486106cf565b5b9060005260206000200160009054906101000a900473ffffffffffffffffffffffffffffffffffffffff16600160006101000a81548173ffffffffffffffffffffffffffffffffffffffff021916908373ffffffffffffffffffffffffffffffffffffffff160217905550600067ffffffffffffffff8111156102cf576102ce6106fe565b5b6040519080825280602002602001820160405280156102fd5781602001602082028036833780820191505090505b5060029080519060200190610313929190610491565b5050565b600060fb424460026040516020016103319392919061086c565b6040516020818303038152906040528051906020012060001c610354919061069e565b905090565b60008054906101000a900473ffffffffffffffffffffffffffffffffffffffff1681565b600160009054906101000a900473ffffffffffffffffffffffffffffffffffffffff1681565b670de0b6b3a764000034146103ed576040517f08c379a00000000000000000000000000000000000000000000000000000000081526004016103e490610902565b60405180910390fd5b6002339080600181540180825580915050600190039060005260206000200160009091909190916101000a81548173ffffffffffffffffffffffffffffffffffffffff021916908373ffffffffffffffffffffffffffffffffffffffff160217905550565b6002818154811061046257600080fd5b906000526020600020016000915054906101000a900473ffffffffffffffffffffffffffffffffffffffff1681565b82805482825590600052602060002090810192821561050a579160200282015b828111156105095782518260006101000a81548173ffffffffffffffffffffffffffffffffffffffff021916908373ffffffffffffffffffffffffffffffffffffffff160217905550916020019190600101906104b1565b5b509050610517919061051b565b5090565b5b8082111561053457600081600090555060010161051c565b5090565b600060ff82169050919050565b61054e81610538565b82525050565b60006020820190506105696000830184610545565b92915050565b600073ffffffffffffffffffffffffffffffffffffffff82169050919050565b600061059a8261056f565b9050919050565b6105aa8161058f565b82525050565b60006020820190506105c560008301846105a1565b92915050565b600080fd5b6000819050919050565b6105e3816105d0565b81146105ee57600080fd5b50565b600081359050610600816105da565b92915050565b60006020828403121561061c5761061b6105cb565b5b600061062a848285016105f1565b91505092915050565b600061063e8261056f565b9050919050565b61064e81610633565b82525050565b60006020820190506106696000830184610645565b92915050565b7f4e487b7100000000000000000000000000000000000000000000000000000000600052601260045260246000fd5b60006106a9826105d0565b91506106b4836105d0565b9250826106c4576106c361066f565b5b828206905092915050565b7f4e487b7100000000000000000000000000000000000000000000000000000000600052603260045260246000fd5b7f4e487b7100000000000000000000000000000000000000000000000000000000600052604160045260246000fd5b6000819050919050565b610748610743826105d0565b61072d565b82525050565b600081549050919050565b600081905092915050565b60008190508160005260206000209050919050565b61078281610633565b82525050565b60006107948383610779565b60208301905092915050565b60008160001c9050919050565b600073ffffffffffffffffffffffffffffffffffffffff82169050919050565b60006107e06107db836107a0565b6107ad565b9050919050565b60006107f382546107cd565b9050919050565b6000600182019050919050565b60006108128261074e565b61081c8185610759565b935061082783610764565b8060005b8381101561085f5761083c826107e7565b6108468882610788565b9750610851836107fa565b92505060018101905061082b565b5085935050505092915050565b60006108788286610737565b6020820191506108888285610737565b6020820191506108988284610807565b9150819050949350505050565b600082825260208201905092915050565b7f496e73756666696369656e742046756e64730000000000000000000000000000600082015250565b60006108ec6012836108a5565b91506108f7826108b6565b602082019050919050565b6000602082019050818103600083015261091b816108df565b905091905056fea2646970667358221220f83fdb9aae2ccca8506c3c2756fd104721bccbe4a2a7feea86fcb937edd252d364736f6c63430008120033",
					"opcodes": "PUSH1 0x80 PUSH1 0x40 MSTORE CALLVALUE DUP1 ISZERO PUSH2 0x10 JUMPI PUSH1 0x0 DUP1 REVERT JUMPDEST POP CALLER PUSH1 0x0 DUP1 PUSH2 0x100 EXP DUP2 SLOAD DUP2 PUSH20 0xFFFFFFFFFFFFFFFFFFFFFFFFFFFFFFFFFFFFFFFF MUL NOT AND SWAP1 DUP4 PUSH20 0xFFFFFFFFFFFFFFFFFFFFFFFFFFFFFFFFFFFFFFFF AND MUL OR SWAP1 SSTORE POP PUSH2 0x958 DUP1 PUSH2 0x60 PUSH1 0x0 CODECOPY PUSH1 0x0 RETURN INVALID PUSH1 0x80 PUSH1 0x40 MSTORE PUSH1 0x4 CALLDATASIZE LT PUSH2 0x55 JUMPI PUSH1 0x0 CALLDATALOAD PUSH1 0xE0 SHR DUP1 PUSH4 0x5D495AEA EQ PUSH2 0x5A JUMPI DUP1 PUSH4 0x5EC01E4D EQ PUSH2 0x71 JUMPI DUP1 PUSH4 0x8DA5CB5B EQ PUSH2 0x9C JUMPI DUP1 PUSH4 0xDFBF53AE EQ PUSH2 0xC7 JUMPI DUP1 PUSH4 0xE97DCB62 EQ PUSH2 0xF2 JUMPI DUP1 PUSH4 0xF71D96CB EQ PUSH2 0xFC JUMPI JUMPDEST PUSH1 0x0 DUP1 REVERT JUMPDEST CALLVALUE DUP1 ISZERO PUSH2 0x66 JUMPI PUSH1 0x0 DUP1 REVERT JUMPDEST POP PUSH2 0x6F PUSH2 0x139 JUMP JUMPDEST STOP JUMPDEST CALLVALUE DUP1 ISZERO PUSH2 0x7D JUMPI PUSH1 0x0 DUP1 REVERT JUMPDEST POP PUSH2 0x86 PUSH2 0x317 JUMP JUMPDEST PUSH1 0x40 MLOAD PUSH2 0x93 SWAP2 SWAP1 PUSH2 0x554 JUMP JUMPDEST PUSH1 0x40 MLOAD DUP1 SWAP2 SUB SWAP1 RETURN JUMPDEST CALLVALUE DUP1 ISZERO PUSH2 0xA8 JUMPI PUSH1 0x0 DUP1 REVERT JUMPDEST POP PUSH2 0xB1 PUSH2 0x359 JUMP JUMPDEST PUSH1 0x40 MLOAD PUSH2 0xBE SWAP2 SWAP1 PUSH2 0x5B0 JUMP JUMPDEST PUSH1 0x40 MLOAD DUP1 SWAP2 SUB SWAP1 RETURN JUMPDEST CALLVALUE DUP1 ISZERO PUSH2 0xD3 JUMPI PUSH1 0x0 DUP1 REVERT JUMPDEST POP PUSH2 0xDC PUSH2 0x37D JUMP JUMPDEST PUSH1 0x40 MLOAD PUSH2 0xE9 SWAP2 SWAP1 PUSH2 0x5B0 JUMP JUMPDEST PUSH1 0x40 MLOAD DUP1 SWAP2 SUB SWAP1 RETURN JUMPDEST PUSH2 0xFA PUSH2 0x3A3 JUMP JUMPDEST STOP JUMPDEST CALLVALUE DUP1 ISZERO PUSH2 0x108 JUMPI PUSH1 0x0 DUP1 REVERT JUMPDEST POP PUSH2 0x123 PUSH1 0x4 DUP1 CALLDATASIZE SUB DUP2 ADD SWAP1 PUSH2 0x11E SWAP2 SWAP1 PUSH2 0x606 JUMP JUMPDEST PUSH2 0x452 JUMP JUMPDEST PUSH1 0x40 MLOAD PUSH2 0x130 SWAP2 SWAP1 PUSH2 0x654 JUMP JUMPDEST PUSH1 0x40 MLOAD DUP1 SWAP2 SUB SWAP1 RETURN JUMPDEST PUSH1 0x0 DUP1 SLOAD SWAP1 PUSH2 0x100 EXP SWAP1 DIV PUSH20 0xFFFFFFFFFFFFFFFFFFFFFFFFFFFFFFFFFFFFFFFF AND PUSH20 0xFFFFFFFFFFFFFFFFFFFFFFFFFFFFFFFFFFFFFFFF AND CALLER PUSH20 0xFFFFFFFFFFFFFFFFFFFFFFFFFFFFFFFFFFFFFFFF AND EQ PUSH2 0x191 JUMPI PUSH1 0x0 DUP1 REVERT JUMPDEST PUSH1 0x0 PUSH1 0x2 DUP1 SLOAD SWAP1 POP PUSH2 0x1A1 PUSH2 0x317 JUMP JUMPDEST PUSH1 0xFF AND PUSH2 0x1AE SWAP2 SWAP1 PUSH2 0x69E JUMP JUMPDEST SWAP1 POP PUSH1 0x2 DUP2 DUP2 SLOAD DUP2 LT PUSH2 0x1C4 JUMPI PUSH2 0x1C3 PUSH2 0x6CF JUMP JUMPDEST JUMPDEST SWAP1 PUSH1 0x0 MSTORE PUSH1 0x20 PUSH1 0x0 KECCAK256 ADD PUSH1 0x0 SWAP1 SLOAD SWAP1 PUSH2 0x100 EXP SWAP1 DIV PUSH20 0xFFFFFFFFFFFFFFFFFFFFFFFFFFFFFFFFFFFFFFFF AND PUSH20 0xFFFFFFFFFFFFFFFFFFFFFFFFFFFFFFFFFFFFFFFF AND PUSH2 0x8FC SELFBALANCE SWAP1 DUP2 ISZERO MUL SWAP1 PUSH1 0x40 MLOAD PUSH1 0x0 PUSH1 0x40 MLOAD DUP1 DUP4 SUB DUP2 DUP6 DUP9 DUP9 CALL SWAP4 POP POP POP POP ISZERO DUP1 ISZERO PUSH2 0x234 JUMPI RETURNDATASIZE PUSH1 0x0 DUP1 RETURNDATACOPY RETURNDATASIZE PUSH1 0x0 REVERT JUMPDEST POP PUSH1 0x2 DUP2 DUP2 SLOAD DUP2 LT PUSH2 0x249 JUMPI PUSH2 0x248 PUSH2 0x6CF JUMP JUMPDEST JUMPDEST SWAP1 PUSH1 0x0 MSTORE PUSH1 0x20 PUSH1 0x0 KECCAK256 ADD PUSH1 0x0 SWAP1 SLOAD SWAP1 PUSH2 0x100 EXP SWAP1 DIV PUSH20 0xFFFFFFFFFFFFFFFFFFFFFFFFFFFFFFFFFFFFFFFF AND PUSH1 0x1 PUSH1 0x0 PUSH2 0x100 EXP DUP2 SLOAD DUP2 PUSH20 0xFFFFFFFFFFFFFFFFFFFFFFFFFFFFFFFFFFFFFFFF MUL NOT AND SWAP1 DUP4 PUSH20 0xFFFFFFFFFFFFFFFFFFFFFFFFFFFFFFFFFFFFFFFF AND MUL OR SWAP1 SSTORE POP PUSH1 0x0 PUSH8 0xFFFFFFFFFFFFFFFF DUP2 GT ISZERO PUSH2 0x2CF JUMPI PUSH2 0x2CE PUSH2 0x6FE JUMP JUMPDEST JUMPDEST PUSH1 0x40 MLOAD SWAP1 DUP1 DUP3 MSTORE DUP1 PUSH1 0x20 MUL PUSH1 0x20 ADD DUP3 ADD PUSH1 0x40 MSTORE DUP1 ISZERO PUSH2 0x2FD JUMPI DUP2 PUSH1 0x20 ADD PUSH1 0x20 DUP3 MUL DUP1 CALLDATASIZE DUP4 CALLDATACOPY DUP1 DUP3 ADD SWAP2 POP POP SWAP1 POP JUMPDEST POP PUSH1 0x2 SWAP1 DUP1 MLOAD SWAP1 PUSH1 0x20 ADD SWAP1 PUSH2 0x313 SWAP3 SWAP2 SWAP1 PUSH2 0x491 JUMP JUMPDEST POP POP JUMP JUMPDEST PUSH1 0x0 PUSH1 0xFB TIMESTAMP PREVRANDAO PUSH1 0x2 PUSH1 0x40 MLOAD PUSH1 0x20 ADD PUSH2 0x331 SWAP4 SWAP3 SWAP2 SWAP1 PUSH2 0x86C JUMP JUMPDEST PUSH1 0x40 MLOAD PUSH1 0x20 DUP2 DUP4 SUB SUB DUP2 MSTORE SWAP1 PUSH1 0x40 MSTORE DUP1 MLOAD SWAP1 PUSH1 0x20 ADD KECCAK256 PUSH1 0x0 SHR PUSH2 0x354 SWAP2 SWAP1 PUSH2 0x69E JUMP JUMPDEST SWAP1 POP SWAP1 JUMP JUMPDEST PUSH1 0x0 DUP1 SLOAD SWAP1 PUSH2 0x100 EXP SWAP1 DIV PUSH20 0xFFFFFFFFFFFFFFFFFFFFFFFFFFFFFFFFFFFFFFFF AND DUP2 JUMP JUMPDEST PUSH1 0x1 PUSH1 0x0 SWAP1 SLOAD SWAP1 PUSH2 0x100 EXP SWAP1 DIV PUSH20 0xFFFFFFFFFFFFFFFFFFFFFFFFFFFFFFFFFFFFFFFF AND DUP2 JUMP JUMPDEST PUSH8 0xDE0B6B3A7640000 CALLVALUE EQ PUSH2 0x3ED JUMPI PUSH1 0x40 MLOAD PUSH32 0x8C379A000000000000000000000000000000000000000000000000000000000 DUP2 MSTORE PUSH1 0x4 ADD PUSH2 0x3E4 SWAP1 PUSH2 0x902 JUMP JUMPDEST PUSH1 0x40 MLOAD DUP1 SWAP2 SUB SWAP1 REVERT JUMPDEST PUSH1 0x2 CALLER SWAP1 DUP1 PUSH1 0x1 DUP2 SLOAD ADD DUP1 DUP3 SSTORE DUP1 SWAP2 POP POP PUSH1 0x1 SWAP1 SUB SWAP1 PUSH1 0x0 MSTORE PUSH1 0x20 PUSH1 0x0 KECCAK256 ADD PUSH1 0x0 SWAP1 SWAP2 SWAP1 SWAP2 SWAP1 SWAP2 PUSH2 0x100 EXP DUP2 SLOAD DUP2 PUSH20 0xFFFFFFFFFFFFFFFFFFFFFFFFFFFFFFFFFFFFFFFF MUL NOT AND SWAP1 DUP4 PUSH20 0xFFFFFFFFFFFFFFFFFFFFFFFFFFFFFFFFFFFFFFFF AND MUL OR SWAP1 SSTORE POP JUMP JUMPDEST PUSH1 0x2 DUP2 DUP2 SLOAD DUP2 LT PUSH2 0x462 JUMPI PUSH1 0x0 DUP1 REVERT JUMPDEST SWAP1 PUSH1 0x0 MSTORE PUSH1 0x20 PUSH1 0x0 KECCAK256 ADD PUSH1 0x0 SWAP2 POP SLOAD SWAP1 PUSH2 0x100 EXP SWAP1 DIV PUSH20 0xFFFFFFFFFFFFFFFFFFFFFFFFFFFFFFFFFFFFFFFF AND DUP2 JUMP JUMPDEST DUP3 DUP1 SLOAD DUP3 DUP3 SSTORE SWAP1 PUSH1 0x0 MSTORE PUSH1 0x20 PUSH1 0x0 KECCAK256 SWAP1 DUP2 ADD SWAP3 DUP3 ISZERO PUSH2 0x50A JUMPI SWAP2 PUSH1 0x20 MUL DUP3 ADD JUMPDEST DUP3 DUP2 GT ISZERO PUSH2 0x509 JUMPI DUP3 MLOAD DUP3 PUSH1 0x0 PUSH2 0x100 EXP DUP2 SLOAD DUP2 PUSH20 0xFFFFFFFFFFFFFFFFFFFFFFFFFFFFFFFFFFFFFFFF MUL NOT AND SWAP1 DUP4 PUSH20 0xFFFFFFFFFFFFFFFFFFFFFFFFFFFFFFFFFFFFFFFF AND MUL OR SWAP1 SSTORE POP SWAP2 PUSH1 0x20 ADD SWAP2 SWAP1 PUSH1 0x1 ADD SWAP1 PUSH2 0x4B1 JUMP JUMPDEST JUMPDEST POP SWAP1 POP PUSH2 0x517 SWAP2 SWAP1 PUSH2 0x51B JUMP JUMPDEST POP SWAP1 JUMP JUMPDEST JUMPDEST DUP1 DUP3 GT ISZERO PUSH2 0x534 JUMPI PUSH1 0x0 DUP2 PUSH1 0x0 SWAP1 SSTORE POP PUSH1 0x1 ADD PUSH2 0x51C JUMP JUMPDEST POP SWAP1 JUMP JUMPDEST PUSH1 0x0 PUSH1 0xFF DUP3 AND SWAP1 POP SWAP2 SWAP1 POP JUMP JUMPDEST PUSH2 0x54E DUP2 PUSH2 0x538 JUMP JUMPDEST DUP3 MSTORE POP POP JUMP JUMPDEST PUSH1 0x0 PUSH1 0x20 DUP3 ADD SWAP1 POP PUSH2 0x569 PUSH1 0x0 DUP4 ADD DUP5 PUSH2 0x545 JUMP JUMPDEST SWAP3 SWAP2 POP POP JUMP JUMPDEST PUSH1 0x0 PUSH20 0xFFFFFFFFFFFFFFFFFFFFFFFFFFFFFFFFFFFFFFFF DUP3 AND SWAP1 POP SWAP2 SWAP1 POP JUMP JUMPDEST PUSH1 0x0 PUSH2 0x59A DUP3 PUSH2 0x56F JUMP JUMPDEST SWAP1 POP SWAP2 SWAP1 POP JUMP JUMPDEST PUSH2 0x5AA DUP2 PUSH2 0x58F JUMP JUMPDEST DUP3 MSTORE POP POP JUMP JUMPDEST PUSH1 0x0 PUSH1 0x20 DUP3 ADD SWAP1 POP PUSH2 0x5C5 PUSH1 0x0 DUP4 ADD DUP5 PUSH2 0x5A1 JUMP JUMPDEST SWAP3 SWAP2 POP POP JUMP JUMPDEST PUSH1 0x0 DUP1 REVERT JUMPDEST PUSH1 0x0 DUP2 SWAP1 POP SWAP2 SWAP1 POP JUMP JUMPDEST PUSH2 0x5E3 DUP2 PUSH2 0x5D0 JUMP JUMPDEST DUP2 EQ PUSH2 0x5EE JUMPI PUSH1 0x0 DUP1 REVERT JUMPDEST POP JUMP JUMPDEST PUSH1 0x0 DUP2 CALLDATALOAD SWAP1 POP PUSH2 0x600 DUP2 PUSH2 0x5DA JUMP JUMPDEST SWAP3 SWAP2 POP POP JUMP JUMPDEST PUSH1 0x0 PUSH1 0x20 DUP3 DUP5 SUB SLT ISZERO PUSH2 0x61C JUMPI PUSH2 0x61B PUSH2 0x5CB JUMP JUMPDEST JUMPDEST PUSH1 0x0 PUSH2 0x62A DUP5 DUP3 DUP6 ADD PUSH2 0x5F1 JUMP JUMPDEST SWAP2 POP POP SWAP3 SWAP2 POP POP JUMP JUMPDEST PUSH1 0x0 PUSH2 0x63E DUP3 PUSH2 0x56F JUMP JUMPDEST SWAP1 POP SWAP2 SWAP1 POP JUMP JUMPDEST PUSH2 0x64E DUP2 PUSH2 0x633 JUMP JUMPDEST DUP3 MSTORE POP POP JUMP JUMPDEST PUSH1 0x0 PUSH1 0x20 DUP3 ADD SWAP1 POP PUSH2 0x669 PUSH1 0x0 DUP4 ADD DUP5 PUSH2 0x645 JUMP JUMPDEST SWAP3 SWAP2 POP POP JUMP JUMPDEST PUSH32 0x4E487B7100000000000000000000000000000000000000000000000000000000 PUSH1 0x0 MSTORE PUSH1 0x12 PUSH1 0x4 MSTORE PUSH1 0x24 PUSH1 0x0 REVERT JUMPDEST PUSH1 0x0 PUSH2 0x6A9 DUP3 PUSH2 0x5D0 JUMP JUMPDEST SWAP2 POP PUSH2 0x6B4 DUP4 PUSH2 0x5D0 JUMP JUMPDEST SWAP3 POP DUP3 PUSH2 0x6C4 JUMPI PUSH2 0x6C3 PUSH2 0x66F JUMP JUMPDEST JUMPDEST DUP3 DUP3 MOD SWAP1 POP SWAP3 SWAP2 POP POP JUMP JUMPDEST PUSH32 0x4E487B7100000000000000000000000000000000000000000000000000000000 PUSH1 0x0 MSTORE PUSH1 0x32 PUSH1 0x4 MSTORE PUSH1 0x24 PUSH1 0x0 REVERT JUMPDEST PUSH32 0x4E487B7100000000000000000000000000000000000000000000000000000000 PUSH1 0x0 MSTORE PUSH1 0x41 PUSH1 0x4 MSTORE PUSH1 0x24 PUSH1 0x0 REVERT JUMPDEST PUSH1 0x0 DUP2 SWAP1 POP SWAP2 SWAP1 POP JUMP JUMPDEST PUSH2 0x748 PUSH2 0x743 DUP3 PUSH2 0x5D0 JUMP JUMPDEST PUSH2 0x72D JUMP JUMPDEST DUP3 MSTORE POP POP JUMP JUMPDEST PUSH1 0x0 DUP2 SLOAD SWAP1 POP SWAP2 SWAP1 POP JUMP JUMPDEST PUSH1 0x0 DUP2 SWAP1 POP SWAP3 SWAP2 POP POP JUMP JUMPDEST PUSH1 0x0 DUP2 SWAP1 POP DUP2 PUSH1 0x0 MSTORE PUSH1 0x20 PUSH1 0x0 KECCAK256 SWAP1 POP SWAP2 SWAP1 POP JUMP JUMPDEST PUSH2 0x782 DUP2 PUSH2 0x633 JUMP JUMPDEST DUP3 MSTORE POP POP JUMP JUMPDEST PUSH1 0x0 PUSH2 0x794 DUP4 DUP4 PUSH2 0x779 JUMP JUMPDEST PUSH1 0x20 DUP4 ADD SWAP1 POP SWAP3 SWAP2 POP POP JUMP JUMPDEST PUSH1 0x0 DUP2 PUSH1 0x0 SHR SWAP1 POP SWAP2 SWAP1 POP JUMP JUMPDEST PUSH1 0x0 PUSH20 0xFFFFFFFFFFFFFFFFFFFFFFFFFFFFFFFFFFFFFFFF DUP3 AND SWAP1 POP SWAP2 SWAP1 POP JUMP JUMPDEST PUSH1 0x0 PUSH2 0x7E0 PUSH2 0x7DB DUP4 PUSH2 0x7A0 JUMP JUMPDEST PUSH2 0x7AD JUMP JUMPDEST SWAP1 POP SWAP2 SWAP1 POP JUMP JUMPDEST PUSH1 0x0 PUSH2 0x7F3 DUP3 SLOAD PUSH2 0x7CD JUMP JUMPDEST SWAP1 POP SWAP2 SWAP1 POP JUMP JUMPDEST PUSH1 0x0 PUSH1 0x1 DUP3 ADD SWAP1 POP SWAP2 SWAP1 POP JUMP JUMPDEST PUSH1 0x0 PUSH2 0x812 DUP3 PUSH2 0x74E JUMP JUMPDEST PUSH2 0x81C DUP2 DUP6 PUSH2 0x759 JUMP JUMPDEST SWAP4 POP PUSH2 0x827 DUP4 PUSH2 0x764 JUMP JUMPDEST DUP1 PUSH1 0x0 JUMPDEST DUP4 DUP2 LT ISZERO PUSH2 0x85F JUMPI PUSH2 0x83C DUP3 PUSH2 0x7E7 JUMP JUMPDEST PUSH2 0x846 DUP9 DUP3 PUSH2 0x788 JUMP JUMPDEST SWAP8 POP PUSH2 0x851 DUP4 PUSH2 0x7FA JUMP JUMPDEST SWAP3 POP POP PUSH1 0x1 DUP2 ADD SWAP1 POP PUSH2 0x82B JUMP JUMPDEST POP DUP6 SWAP4 POP POP POP POP SWAP3 SWAP2 POP POP JUMP JUMPDEST PUSH1 0x0 PUSH2 0x878 DUP3 DUP7 PUSH2 0x737 JUMP JUMPDEST PUSH1 0x20 DUP3 ADD SWAP2 POP PUSH2 0x888 DUP3 DUP6 PUSH2 0x737 JUMP JUMPDEST PUSH1 0x20 DUP3 ADD SWAP2 POP PUSH2 0x898 DUP3 DUP5 PUSH2 0x807 JUMP JUMPDEST SWAP2 POP DUP2 SWAP1 POP SWAP5 SWAP4 POP POP POP POP JUMP JUMPDEST PUSH1 0x0 DUP3 DUP3 MSTORE PUSH1 0x20 DUP3 ADD SWAP1 POP SWAP3 SWAP2 POP POP JUMP JUMPDEST PUSH32 0x496E73756666696369656E742046756E64730000000000000000000000000000 PUSH1 0x0 DUP3 ADD MSTORE POP JUMP JUMPDEST PUSH1 0x0 PUSH2 0x8EC PUSH1 0x12 DUP4 PUSH2 0x8A5 JUMP JUMPDEST SWAP2 POP PUSH2 0x8F7 DUP3 PUSH2 0x8B6 JUMP JUMPDEST PUSH1 0x20 DUP3 ADD SWAP1 POP SWAP2 SWAP1 POP JUMP JUMPDEST PUSH1 0x0 PUSH1 0x20 DUP3 ADD SWAP1 POP DUP2 DUP2 SUB PUSH1 0x0 DUP4 ADD MSTORE PUSH2 0x91B DUP2 PUSH2 0x8DF JUMP JUMPDEST SWAP1 POP SWAP2 SWAP1 POP JUMP INVALID LOG2 PUSH5 0x6970667358 0x22 SLT KECCAK256 0xF8 EXTCODEHASH 0xDB SWAP11 0xAE 0x2C 0xCC 0xA8 POP PUSH13 0x3C2756FD104721BCCBE4A2A7FE 0xEA DUP7 0xFC 0xB9 CALLDATACOPY 0xED 0xD2 MSTORE 0xD3 PUSH5 0x736F6C6343 STOP ADDMOD SLT STOP CALLER "
				},
				"gasEstimates": {
					"creation": {
						"codeDepositCost": "478400",
						"executionCost": "24777",
						"totalCost": "503177"
					},
					"external": {
						"enter()": "48786",
						"owner()": "2533",
						"pickWinner()": "infinite",
						"players(uint256)": "5044",
						"random()": "infinite",
						"winner()": "2558"
					}
				},
				"methodIdentifiers": {
					"enter()": "e97dcb62",
					"owner()": "8da5cb5b",
					"pickWinner()": "5d495aea",
					"players(uint256)": "f71d96cb",
					"random()": "5ec01e4d",
					"winner()": "dfbf53ae"
				}
			},
			"storageLayout": {
				"storage": [
					{
						"astId": 3,
						"contract": "contracts/lottery.sol:Lottery",
						"label": "owner",
						"offset": 0,
						"slot": "0",
						"type": "t_address"
					},
					{
						"astId": 5,
						"contract": "contracts/lottery.sol:Lottery",
						"label": "winner",
						"offset": 0,
						"slot": "1",
						"type": "t_address"
					},
					{
						"astId": 8,
						"contract": "contracts/lottery.sol:Lottery",
						"label": "players",
						"offset": 0,
						"slot": "2",
						"type": "t_array(t_address_payable)dyn_storage"
					}
				],
				"types": {
					"t_address": {
						"encoding": "inplace",
						"label": "address",
						"numberOfBytes": "20"
					},
					"t_address_payable": {
						"encoding": "inplace",
						"label": "address payable",
						"numberOfBytes": "20"
					},
					"t_array(t_address_payable)dyn_storage": {
						"base": "t_address_payable",
						"encoding": "dynamic_array",
						"label": "address payable[]",
						"numberOfBytes": "32"
					}
				}
			},
			"userdoc": {
				"kind": "user",
				"methods": {},
				"version": 1
			}
		}
	}
}